S01700004763634170706C69636174696F6E312E737265635B
S11300000C9434000C9446000C9446000C94460066
S11300100C9446000C9446000C9446000C94460044
S11300200C9446000C9446000C9446000C94460034
S11300300C9446000C9446000C9446000C94460024
S11300400C9446000C9446000C9446000C94460014
S11300500C9446000C9446000C9446000C94460004
S11300600C9446000C94460011241FBECFEFD8E038
S1130070DEBFCDBF21E0A0E0B1E001C01D92A230FF
S1130080B207E1F70E9448000C9495000C9400001C
S11300908FEF8AB914B88BB9E0E0F1E021E030E0E9
S11300A047E050E0189B20C0C901008002C0880FBF
S11300B0991F0A94E2F780958BB98FE493EC01972A
S11300C0F1F700C0000080910001909101010196B8
S11300D0883091052CF4909301018093000104C0B1
S11300E01092010110920001199BDCCF8091000154
S11300F09091010101972AF09093010180930001EE
S113010004C05093010140930001C901008002C062
S1130110880F991F0A94E2F780958BB98FE493ECCA
S11101200197F1F700C00000BDCFF894FFCFA7
S9030000FC
