:100000000C9434000C9446000C9446000C9446006A
:100010000C9446000C9446000C9446000C94460048
:100020000C9446000C9446000C9446000C94460038
:100030000C9446000C9446000C9446000C94460028
:100040000C9446000C9446000C9446000C94460018
:100050000C9446000C9446000C9446000C94460008
:100060000C9446000C94460011241FBECFEFD8E03C
:10007000DEBFCDBF21E0A0E0B1E001C01D92A23003
:10008000B207E1F70E9448000C9499000C9400001C
:100090008FEF8AB914B88BB9E0E0F1E021E030E0ED
:1000A00047E050E0189903C0199922C0FBCFC9015D
:1000B000008002C0880F991F0A94E2F780958BB9DF
:1000C00080910001909101010196883091052CF4F6
:1000D000909301018093000104C0109201011092DD
:1000E00000018FE493EC0197F1F700C00000DACF34
:1000F000809100019091010101972AF090930101F4
:100100008093000104C05093010140930001C90194
:10011000008002C0880F991F0A94E2F780958BB97E
:100120008FE493EC0197F1F700C000001999E0CF3C
:06013000B9CFF894FFCFE7
:00000001FF
