S010000032444953375345472E73726563EC
S11300000C9445000C9457000C9457000C94570022
S11300100C9457000C9457000C9457000C94570000
S11300200C9457000C9457000C9457000C945700F0
S11300300C9457000C94AC000C9457000C9457008B
S11300400C9457000C9457000C9457000C945700D0
S11300500C9457000C9457000C9457000C945700C0
S11300600C9457000C94570081008300850087008E
S113007089008B008D008F00910093009E00A000EA
S1130080A200A400A600A800AA0011241FBECFEF5E
S1130090D8E0DEBFCDBF21E0A0E0B1E001C01D92F9
S11300A0A230B207E1F70E9459000C94DD000C94D1
S11300B000008FEF84B98AB980E485B98BB987EFE2
S11300C092EC909385008093840083E08093810078
S11300D081E080936F00789410E1D8E7C2E072E188
S11300E069E150E344E239E720E4E09101018E2F15
S11300F090E08A309105C0F4FC01EC5CFF4F0C9455
S1130100D70025B911C035B90FC045B90DC055B9CF
S11301100BC065B909C075B907C0C5B905C0D5B963
S113012003C015B801C015B9E0910001F0E0E73053
S1130130F105D8F6E25CFF4F0C94D7002BB9D5CF6C
S11301403BB9D3CF4BB9D1CF5BB9CFCF6BB9CDCFFF
S11301507BB9CBCFCBB9C9CF1F920F920FB60F92F9
S113016011248F939F9387EF92EC90938500809353
S11301708400809101018F5F8A3018F4809301011B
S113018007C010920101809100018F5F80930001EC
S113019080910001863020F010920001109201013C
S11301A09F918F910F900FBE0F901F901895EE0F97
S11101B0FF1F0590F491E02D0994F894FFCF01
S9030000FC
