:100000000C9434000C943E000C943E000C943E0082
:100010000C943E000C943E000C943E000C943E0068
:100020000C943E000C943E000C943E000C943E0058
:100030000C943E000C943E000C943E000C943E0048
:100040000C9440000C943E000C943E000C943E0036
:100050000C943E000C943E000C943E000C943E0028
:100060000C943E000C943E0011241FBECFEFD8E04C
:10007000DEBFCDBF0E94B0000C9498010C9400002C
:100080001F920F920FB60F9211242F933F934F930D
:100090005F936F937F938F939F93AF93BF93EF93F0
:1000A000FF930E945801863DA9F1873D88F48B3C5F
:1000B00029F18C3C30F4843CD9F0883C09F03FC0F5
:1000C0001AC0813D09F1833D11F18E3CC1F519C083
:1000D0008C3D49F18D3D28F4883DF9F08A3D79F554
:1000E0001FC0803E31F1823E39F18E3D41F51EC088
:1000F00086BD82EE23C086BD84EE20C086BD85EE1F
:100100001DC086BD87EE1AC086BD88EE17C086BDAD
:1001100089EE14C086BD8BEE11C086BD8CEE0EC07C
:1001200086BD8DEE0BC086BD8EEE08C086BD8FEEFF
:1001300005C086BD80EF02C086BD81EF87BDFF91FF
:10014000EF91BF91AF919F918F917F916F915F914F
:100150004F913F912F910F900FBE0F901F901895C8
:10016000CF93DF9383E884BD83E085BD81E08093F6
:100170006E007894C4EDD0E384EC0E94320117BC89
:10018000CE010197F1F784EC0E94320117BCCE0139
:100190000197F1F788ED0E94320117BCCE0101975B
:1001A000F1F788ED0E94320117BCCE010197F1F7FB
:1001B0008CED0E94320117BCCE010197F1F78CED56
:1001C0000E94320117BCCE010197F1F788ED0E9421
:1001D000450117BCCE010197F1F783ED0E94320172
:1001E00017BCCE010197F1F783ED0E94320117BCD5
:1001F000CE010197F1F781ED0E94320117BCCE01CB
:100200000197F1F781ED0E94320117BCCE010197F1
:10021000F1F78BEC0E94320117BCCE010197F1F788
:100220008BEC0E94320117BCCE010197F1F784ECF0
:100230000E94450117BCCE010197F1F79DCF86BD05
:1002400020E031E0281B310935952795820F87BDC5
:1002500086EA9EE029E130E0F9013197F1F7019754
:10026000D9F7089586BD20E031E0281B3109359586
:100270002795820F87BD8CE49DE129E130E0F901EB
:100280003197F1F70197D9F7089586BD20E031E065
:10029000281B310935952795820F87BD88E99AE398
:1002A00029E130E0F9013197F1F70197D9F7089585
:1002B00087B58B3E61F18C3E80F4853E01F1863E30
:1002C00028F4823E99F1843E81F517C0883ED9F02A
:1002D000893ED9F0873E49F514C08E3EF1F08F3E3D
:1002E00028F48C3EB1F08D3E01F515C0803FC9F079
:1002F000803FA8F0813FC9F416C088EC08958BECCC
:1003000008958EEC089581ED089583ED089586EDAE
:10031000089588ED08958AED08958CED08958EED89
:10032000089580EE089582EE0895089584EC08956E
:04033000F894FFCF6F
:00000001FF
