:100000000C9434000C943E000C943E000C94500070
:100010000C949A000C943E000C943E000C943E000C
:100020000C943E000C943E000C943E000C943E0058
:100030000C943E000C943E000C943E000C943E0048
:100040000C943E000C943E000C943E000C943E0038
:100050000C943E000C943E000C943E000C943E0028
:100060000C943E000C943E0011241FBECFEFD8E04C
:10007000DEBFCDBF0E9440000C94F7000C9400003E
:1000800083E284BD8BE085BD559A789483E08093AC
:1000900068008FEF80936B008FE180936C00FFCF3F
:1000A0001F920F920FB60F9211248F9383B1883055
:1000B00009F1893038F48230A9F08430B9F0813008
:1000C00081F50CC08032F1F0813218F4803149F5AD
:1000D00015C08034D9F0803821F51CC08CE387BD71
:1000E0008EE11BC088E387BD8CE117C085E387BD27
:1000F0008AE113C082E387BD89E10FC08FE287BD2B
:1001000087E10BC08DE287BD86E107C08AE287BD2B
:1001100085E103C088E287BD84E188BD84B5806243
:1001200002C084B58F7D84BD8F910F900FBE0F905C
:100130001F9018951F920F920FB60F9211248F9354
:1001400086B1823471F0833418F48134A9F405C087
:10015000843459F0883481F40AC086E287BD83E193
:1001600009C083E287BD81E105C081E201C080E270
:1001700087BD80E188BD02C017BC18BC84B5806211
:1001800084BD8F910F900FBE0F901F90189587BD63
:10019000869588BD84B5806284BD86EA9EE029E1AB
:1001A00030E0F9013197F1F70197D9F7089587BD4C
:1001B000869588BD84B5806284BD8CE49DE129E18B
:1001C00030E0F9013197F1F70197D9F7089587BD2C
:1001D000869588BD84B5806284BD88E99AE329E16B
:1001E00030E0F9013197F1F70197D9F70895F894C4
:0201F000FFCF3F
:00000001FF
