:100000000C943E000C9450000C9450000C94500042
:100010000C9450000C9450000C9450000C94500020
:100020000C9450000C9450000C9450000C94500010
:100030000C9450000C94A9000C9450000C945000A7
:100040000C9450000C9450000C9450000C945000F0
:100050000C9450000C9450000C9450000C945000E0
:100060000C9450000C9450007A007C007E008000BC
:1000700082008400860088008A008C0011241FBE44
:10008000CFEFD8E0DEBFCDBF21E0A0E0B1E001C0FE
:100090001D92A230B207E1F70E9452000C94D800E2
:1000A0000C9400008FEF84B98AB980E485B98BB9CC
:1000B00087EF92EC909385008093840083E0809397
:1000C000810081E080936F00789410E1D8E7C2E06E
:1000D00072E169E150E344E239E720E4E091010193
:1000E0008E2F90E08A309105C0F4FC01EC5CFF4F4C
:1000F0000C94D20025B911C035B90FC045B90DC057
:1001000055B90BC065B909C075B907C0C5B905C0F7
:10011000D5B903C015B801C015B98091000182306E
:1001200081F028F4882349F0813049F0D7CF84301A
:1001300061F048F0853059F0D1CF2BB9CFCF3BB922
:10014000CDCF4BB9CBCF5BB9C9CF6BB9C7CF7BB9DB
:10015000C5CF1F920F920FB60F9211248F939F93CA
:1001600087EF92EC90938500809384008091010149
:100170008F5F8A3019F08093010107C0109201014E
:10018000809100018F5F8093000180910001863093
:1001900011F4109200019F918F910F900FBE0F905C
:1001A0001F901895EE0FFF1F0590F491E02D099414
:0401B000F894FFCFF1
:00000001FF
