S0130000446973706C6179375345472E7372656325
S11300000C943E000C9448000C9448000C94480056
S11300100C9448000C9448000C9448000C9448003C
S11300200C9448000C9448000C9448000C9448002C
S11300300C9448000C9448000C9448000C9448001C
S11300400C9448000C9448000C9448000C9448000C
S11300500C9448000C9448000C9448000C944800FC
S11300600C9448000C9448005300560059005C005E
S11300705F006200650068006B006D0011241FBE04
S1130080CFEFD8E0DEBFCDBF0E9470000C948E008D
S11300900C94000090E08A30910508F5FC01EC5CBA
S11300A0FF4F0C94880080E485B9089589E785B9E9
S11300B0089584E285B9089580E385B9089589E1B6
S11300C085B9089582E185B9089582E085B90895D6
S11300D088E785B9089515B8089580E185B908952C
S11300E08FEF84B91AB885B9C0E04899CF5F4999B0
S11300F0C1504A99C0E08C2F0E944A00CA3008F0CF
S1130100C9E08FE493EC0197F1F700C00000EDCF54
S1130110EE0FFF1F0590F491E02D0994F894FFCFA2
S9030000FC
