:100000000C94B1000C94CE000C94CE000C94CE0055
:100010000C94CE000C94CE000C94CE000C94CE0028
:100020000C94CE000C94CE000C94CE000C94CE0018
:100030000C94CE000C94CE000C94CE000C94CE0008
:100040000C94CE000C94CE000C94CE000C94CE00F8
:100050000C94CE000C94CE000C94CE000C94CE00E8
:100060000C94CE000C94CE0000407A10F35A00A0FD
:10007000724E18090010A5D4E80000E87648170071
:1000800000E40B54020000CA9A3B000000E1F505B1
:10009000000080969800000040420F000000A086FB
:1000A00001000000102700000000E803000000002D
:1000B0006400000000000A000000000001000000D1
:1000C00000002C76D888DC674F0823DFC1DFAE59EB
:1000D000E1B1B796E5E3E453C63AE651997696E87E
:1000E000E6C28426EB898C9B62ED407C6FFCEFBC02
:1000F0009C9F40F2BAA56FA5F490055A2AF75C932D
:100100006B6CF9676DC11BFCE0E40D47FEF520E662
:10011000B500D0ED902E0300943577050080841E45
:10012000080000204E0A000000C80C333333330FA0
:10013000986E12831141EF8D2114893BE65516CF3D
:10014000FEE6DB18D1844B381BF77C1D901DA4BB49
:10015000E424203284725E228100C9F124ECA1E5FE
:100160003D2711241FBECFEFD8E0DEBFCDBF12E088
:10017000A8E0B2E001C01D92AA30B107E1F712E099
:10018000A0E0B1E0E6E5F1E102C005900D92A830F3
:10019000B107D9F70E94D0000C94A9080C94000074
:1001A000CF93DF930E94C7010E942601C4EFD1E0E4
:1001B0000E940401CE010197F1F70E94F4010E9410
:1001C0007E01F6CF992787FD909580FF02C05C9A4B
:1001D00001C05C9881FF02C05D9A01C05D9882FFFA
:1001E00002C05E9A01C05E9883FF02C05F9A0895C4
:1001F0005F9808955A980E94E2005B9A88EE93E017
:100200000197F1F75B98089580E00E94FA0081E081
:100210000E94FA0084EF91E00197F1F708951F938F
:10022000662319F4182F105C04C0613069F4182F8C
:100230001054812F85958595859585950E94FA00A6
:10024000812F8F700E94FA001F9108958AB18C6FE0
:100250008AB980E00E94E20088E893E10197F1F713
:1002600083E00E94FA0082EE94E00197F1F783E0C8
:100270000E94FA008EEB9AE00197F1F783E00E946A
:10028000FA0082E00E94FA0082E00E94FA0088E010
:100290000E94FA0080E00E94FA008CE00E94FA00BE
:1002A00080E00E94FA0086E00E94FA0008950F9311
:1002B0001F93082F5A9A85958595859585950E9457
:1002C000E2005B9A1DE0812F8A95F1F75B98802F01
:1002D0008F700E94E2005B9A1A95F1F75B981F916C
:1002E0000F910895CF93DF93EC0102C00E94570154
:1002F00089918823D9F7DF91CF910895EF92FF92EA
:100300000F931F93DF93CF93CDB7DEB764970FB6EC
:10031000F894DEBF0FBECDBF46E022E07E01089418
:10032000E11CF11C87010E94E805C7010E947201CF
:1003300064960FB6F894DEBF0FBECDBFCF91DF91AC
:100340001F910F91FF90EF9008950F931F93DF93EC
:10035000CF93CDB7DEB764970FB6F894DEBF0FBE6C
:10036000CDBF8E010F5F1F4FA8012AE030E00E9431
:100370000906C8010E94720164960FB6F894DEBFA8
:100380000FBECDBFCF91DF911F910F91089580EEE9
:1003900080937C0080E880937A0081E080937E00E7
:1003A000089580917A00806480937A0080917A0029
:1003B00084FFFCCF80917A00806180937A008091E5
:1003C00078002091790030E0220F331F220F331F75
:1003D0008295869586958370280F311D309309028A
:1003E00020930802C90108950E94D101AA2797FD10
:1003F000A095BA2FBC01CD010E94B7032DEC3CECB7
:100400004CE85FE30E94110220E030EC4FE754E437
:100410000E940B0320E030E048EC52E40E941102FD
:100420000895A0E2B0E0E7E1F2E00C94B105698341
:100430007A838B839C832D833E834F835887CE01A1
:100440000196BE01675F7F4F0E943905CE01059678
:10045000BE016F5E7F4F0E9439059985923088F00A
:1004600089898230C8F0943019F4823051F404C084
:10047000843029F4923081F480E091E0C6C092305B
:1004800049F420E09A858A89981321E02A87CE01D1
:100490000996BBC0823049F420E09A858A89981376
:1004A00021E02A8BCE014196B0C02D843E844F843A
:1004B00058886D887E888F88988CEE24FF24870169
:1004C000AA24BB24650140E050E060E070E0E0E079
:1004D000F0E0C10181709070892BE9F0E60CF71C07
:1004E000081D191D9A01AB012A0D3B1D4C1D5D1DF8
:1004F00080E090E0A0E0B0E0E614F70408051905FC
:1005000020F481E090E0A0E0B0E0BA01A901480F3A
:10051000591F6A1F7B1FAA0CBB1CCC1CDD1C97FE3D
:1005200008C081E090E0A0E0B0E0A82AB92ACA2A79
:10053000DB2A3196E032F10549F0660C771C881C05
:10054000991C5694479437942794C3CFFA85EA8927
:100550002B893C898B859C85280F391F2E5F3F4F47
:1005600017C0CA0181709070892B61F016950795AC
:10057000F794E79480E090E0A0E0B0E8E82AF92A58
:100580000A2B1B2B76956795579547952F5F3F4F05
:1005900077FDE7CF0CC0440F551F661F771F17FD6F
:1005A0004160EE0CFF1C001F111F215030404030F5
:1005B00090E0590790E0690790E4790760F32B8F8A
:1005C0003C8FDB01CA018F779070A070B0708034CF
:1005D0009105A105B10561F447FD0AC0E114F104DC
:1005E0000105110529F0405C5F4F6F4F7F4F407848
:1005F0001A8EFE1711F081E08A8F4D8F5E8F6F8FFC
:1006000078A383E0898FCE0149960E946404A09666
:10061000E2E10C94CD05A8E1B0E0E1E1F3E00C9457
:10062000B90569837A838B839C832D833E834F83B3
:100630005887B9E0EB2EF12CEC0EFD1ECE01019691
:10064000B7010E9439058E010F5E1F4FCE0105963E
:10065000B8010E9439052985223008F47EC0398905
:10066000323010F4B8017CC08A859A8989278A873C
:10067000243011F0223031F4231709F06EC060E00D
:1006800071E06EC0343039F41D861E861F86188ACC
:100690001C861B8604C0323021F484E08987B701B0
:1006A0005FC02B853C858B899C89281B390B3C8737
:1006B0002B87ED84FE840F851889AD88BE88CF888E
:1006C000D88CEA14FB040C051D0540F4EE0CFF1C4D
:1006D000001F111F215030403C872B8720E030E065
:1006E00040E050E080E090E0A0E0B0E460E070E046
:1006F000EA14FB040C051D0540F0282B392B4A2B6E
:100700005B2BEA18FB080C091D09B695A795979570
:100710008795EE0CFF1C001F111F6F5F7F4F6F311D
:10072000710531F7DA01C9018F779070A070B07050
:1007300080349105A105B10561F427FD0AC0E114DB
:10074000F1040105110529F0205C3F4F4F4F5F4F29
:1007500020782D873E874F87588BBE01675F7F4F7C
:10076000CB010E9464046896EAE00C94D505A8E0E9
:10077000B0E0EDEBF3E00C94BA059B01AC0183E033
:100780008983DA01C9018827B7FD83959927AA27AC
:10079000BB27B82E211531054105510519F482E01A
:1007A00089833AC08823A9F0203080E0380780E0B0
:1007B000480780E8580729F460E070E080E09FEC8B
:1007C00030C0EE24FF248701E21AF30A040B150B54
:1007D00002C079018A018EE1C82ED12CDC82CB8245
:1007E000ED82FE820F831887C801B7010E941504AD
:1007F00001971816190684F4082E04C0EE0CFF1C8D
:10080000001F111F0A94D2F7ED82FE820F83188712
:10081000C81AD90ADC82CB82BA82CE0101960E9424
:1008200064042896E9E00C94D605EF92FF920F93AA
:100830001F937B018C0180E0E81680E0F80681E0E0
:10084000080780E0180788F48FEFE816F104010527
:10085000110531F028F088E090E0A0E0B0E017C08A
:1008600080E090E0A0E0B0E012C080E0E81680E018
:10087000F80680E0080781E0180728F088E190E09A
:10088000A0E0B0E004C080E190E0A0E0B0E020E2B1
:1008900030E040E050E0281B390B4A0B5B0B04C0F2
:1008A00016950795F794E7948A95D2F7F701E85FD4
:1008B000FE4F8081281B310941095109C9011F914F
:1008C0000F91FF90EF900895DF92EF92FF920F93B8
:1008D0001F93FC01E480F58006811781D18080811F
:1008E000823048F480E090E0A0E1B0E0E82AF92A04
:1008F0000A2B1B2BA5C0843009F49FC0823021F441
:10090000EE24FF24870105C0E114F104010511055F
:1009100019F4E0E0F0E096C0628173819FEF6238E5
:1009200079070CF05BC022E83FEF261B370B2A311A
:1009300031052CF020E030E040E050E02AC0B80162
:10094000A701022E04C076956795579547950A949E
:10095000D2F781E090E0A0E0B0E004C0880F991FDA
:10096000AA1FBB1F2A95D2F70197A109B1098E21B1
:100970009F21A023B1230097A105B10521F081E0BB
:1009800090E0A0E0B0E09A01AB01282B392B4A2B74
:100990005B2BDA01C9018F779070A070B070803442
:1009A0009105A105B10539F427FF09C0205C3F4F2F
:1009B0004F4F5F4F04C0215C3F4F4F4F5F4FE0E010
:1009C000F0E02030A0E03A07A0E04A07A0E45A0790
:1009D00010F0E1E0F0E079018A0127C0603871058C
:1009E00064F5FB01E158FF4FD801C7018F77907084
:1009F000A070B07080349105A105B10539F4E7FE0F
:100A00000DC080E490E0A0E0B0E004C08FE390E08F
:100A1000A0E0B0E0E80EF91E0A1F1B1F17FF05C07B
:100A200016950795F794E794319687E01695079504
:100A3000F794E7948A95D1F705C0EE24FF24870147
:100A4000EFEFF0E06E2F679566276795902F9F7701
:100A5000D794DD24D7948E2F8695492F462B582F77
:100A60005D29B701CA011F910F91FF90EF90DF90B0
:100A70000895FC01DB01408151812281622F6F7753
:100A800070E0221F2227221F9381892F880F822B3B
:100A9000282F30E0991F9927991F11969C93119741
:100AA00021153105A9F5411551056105710511F4AF
:100AB00082E037C082E89FEF13969C938E93129743
:100AC0009A01AB0167E0220F331F441F551F6A953F
:100AD000D1F783E08C930DC0220F331F441F551FA5
:100AE00012968D919C911397019713969C938E93D8
:100AF0001297203080E0380780E0480780E45807EC
:100B000058F314962D933D934D935C931797089546
:100B10002F3F310579F4411551056105710519F42F
:100B200084E08C93089564FF03C081E08C9312C02D
:100B30001C9210C02F57304013963C932E9312975F
:100B400083E08C9387E0440F551F661F771F8A95BB
:100B5000D1F7706414964D935D936D937C931797C2
:100B600008952F923F924F925F926F927F928F9251
:100B70009F92AF92BF92CF92DF92EF92FF920F932C
:100B80001F93CF93DF93CDB7DEB7CA1BDB0B0FB636
:100B9000F894DEBF0FBECDBF09942A8839884888F3
:100BA0005F846E847D848C849B84AA84B984C88489
:100BB000DF80EE80FD800C811B81AA81B981CE0F80
:100BC000D11D0FB6F894DEBF0FBECDBFED01089565
:100BD000EF92FF920F931F93F22FF02E47FD02C06A
:100BE000E4E001C0E4E1242F332727FD309537FFEF
:100BF00003C0309521953F4F4F2D512F0F2FEE2ED3
:100C00000E943D068F2D912F1F910F91FF90EF9025
:100C10000895FA01CF93FF93EF93223044F12532E8
:100C200034F5C22FE894CA3049F497FB3EF490950E
:100C30008095709561957F4F8F4F9F4F2C2F332755
:100C400044275527FF93EF930E948708EF91FF9168
:100C5000605D6A330CF0695D6193B901CA0160504F
:100C600070408040904051F716F4CDE2C19310825D
:100C70008F919F91CF910C947708A9E0B0E0E3E4C5
:100C8000F6E00C94B5056A01122FA02EBE2C2BE3C2
:100C9000201718F42CE3922E02C0902E9394AE01EC
:100CA0004F5F5F4F27E0092D0E949F07BC0189819C
:100CB000E82EFF24C70189709070019711F4ADE20E
:100CC00009C0B1FE02C0ABE205C0B0FC02C0A0E0AA
:100CD00001C0A0E2E3FE3BC0AA2311F423E001C05F
:100CE00024E0211710F020E002C0121B212FEB2C72
:100CF000B4FE02C0322F0AC0F601322F80E202C0D9
:100D0000819331503323E1F7C20ED11CAA2319F08D
:100D1000F601A1936F01F6013196E2FE05C09EE453
:100D2000D6019C9381E404C09EE6D6019C9381E6A3
:100D300011968C9391833296DF01832F90E202C04B
:100D40009D9381508823E1F7E30FF11D40C0E2FE3F
:100D500042C0AA2311F423E001C024E0211710F0BF
:100D600020E002C0121B212FEB2CB4FE02C0922FF8
:100D70000AC0F601922F80E202C08193915099231C
:100D8000E1F7C20ED11CAA2319F0F601A1936F015D
:100D9000F6013196E2FE08C089E4D6018C938EE418
:100DA00011968C9386E407C089E6D6018C938EE673
:100DB00011968C9386E681833296DF01892F20E29B
:100DC00002C02D9381508823E1F7E90FF11D1082B5
:100DD0002EEF3FEFAFC0161617061CF041E050E0B3
:100DE00003C0AB014F5F5F4FAA2019F480E090E091
:100DF00003C08A2D90E0019620E030E0AA2311F094
:100E000021E030E0240F351F280F391F812F90E09B
:100E10002817390714F020E002C0121B212F4B2D98
:100E200050E0CA0180719070B4FC0DC0B3FC0BC0DF
:100E3000F601322F40E202C0419331503323E1F7F3
:100E4000C20ED11C01C0322FAA2319F0F601A193C2
:100E50006F01892B11F0132F0AC0F601132F80E3C5
:100E600002C0819311501123E1F7C30ED11C092D4B
:100E7000060FBA8090E1892E912C8E209F20E4FEEF
:100E800004C0F1E3BF1609F40150101614F001E09C
:100E900003C0093008F008E09B0177FF02C020E0A2
:100EA00030E0CB010196821B930BFE013196E80FD7
:100EB000F91F8EE2F82E3B01601A71088A2D90E02E
:100EC00044275527481B590B8FEF2F3F380719F43C
:100ED000D601FD926D01621773072CF0621673063E
:100EE00014F4808101C080E32150304031962417F2
:100EF000350724F0D6018D936D01E6CF261737070D
:100F000049F4B5E3BB1528F0BB1621F48114910414
:100F100009F481E3F6018193D601812F90E202C0AA
:100F20009C93815011968823D9F7E10FF11D10820F
:100F300020E030E0C9012996EEE00C94D10528307C
:100F400008F027E03327DA01990F311D87FD916002
:100F500000966105710539F432602E5F3D9330E3F0
:100F60002A95E1F708959F3F30F0803871056105BB
:100F700009F03C5F3C5F3D93913008F08068911D23
:100F8000DF93CF931F930F93FF92EF92192F987FC8
:100F90009695E92F96959695E90FFF27EE53FF4F0B
:100FA00099273327EE24FF24A701E7010590089431
:100FB000079428F4360FE71EF81E491F511D660FCF
:100FC000771F881F991F0694A1F70590079428F4AE
:100FD000E70EF81E491F561FC11D770F881F991F66
:100FE000661F0694A1F70590079428F4F80E491F90
:100FF000561FC71FD11D880F991F661F771F0694A4
:10100000A1F70590079420F4490F561FC71FD81F5A
:10101000990F661F771F881F0694A9F78491109572
:10102000177041F0D695C79557954795F794E79473
:101030001A95C1F7E8E6F0E068941590159135919E
:101040006591959105907FE27395E118F10A430B44
:10105000560BC90BD009C0F7E10CF11E431F561FF8
:10106000C91FD01D7EF4703311F48A95E6CFE89441
:10107000015030F0080F0AF40027021708F4202F5F
:101080002395022F7A3328F079E37D932A95E9F7A7
:1010900010C07D932A9589F60694979567953795A4
:1010A00017951794E118F10A430B560BC90BD00999
:1010B00098F023957E9173957A3308F070E37C93D2
:1010C0002013B8F77E9170617D9330F0839571E3C2
:1010D0007D9370E32A95E1F71124EF90FF900F9133
:1010E0001F91CF91DF91992787FD90950895DC019D
:1010F000FC01672F71917723E1F7329704C07C914F
:101100006D9370836291AE17BF07C8F30895A1E293
:101110001A2EAA1BBB1BFD010DC0AA1FBB1FEE1F71
:10112000FF1FA217B307E407F50720F0A21BB30BBC
:10113000E40BF50B661F771F881F991F1A9469F738
:1011400060957095809590959B01AC01BD01CF0194
:061150000895F894FFCFA2
:101156000000000000000000000102020303030378
:101166000404040404040404050505050505050531
:101176000505050505050505060606060606060611
:1011860006060606060606060606060606060606F9
:1011960006060606060606060707070707070707E1
:1011A60007070707070707070707070707070707C9
:1011B60007070707070707070707070707070707B9
:1011C60007070707070707070707070707070707A9
:1011D6000707070707070707080808080808080891
:1011E6000808080808080808080808080808080879
:1011F6000808080808080808080808080808080869
:101206000808080808080808080808080808080858
:101216000808080808080808080808080808080848
:101226000808080808080808080808080808080838
:101236000808080808080808080808080808080828
:101246000808080808080808080808080808080818
:08125600080808080808080850
:00000001FF
